{
  "contractName": "BIXCIPLottery",
  "abi": [
    {
      "inputs": [
        {
          "internalType": "address",
          "name": "randomNumberGeneratorAddress",
          "type": "address"
        }
      ],
      "stateMutability": "nonpayable",
      "type": "constructor"
    },
    {
      "inputs": [
        {
          "internalType": "uint256",
          "name": "",
          "type": "uint256"
        }
      ],
      "name": "lotteryHistory",
      "outputs": [
        {
          "internalType": "address payable",
          "name": "",
          "type": "address"
        }
      ],
      "stateMutability": "view",
      "type": "function",
      "constant": true
    },
    {
      "inputs": [],
      "name": "lotteryId",
      "outputs": [
        {
          "internalType": "uint256",
          "name": "",
          "type": "uint256"
        }
      ],
      "stateMutability": "view",
      "type": "function",
      "constant": true
    },
    {
      "inputs": [
        {
          "internalType": "uint256",
          "name": "",
          "type": "uint256"
        }
      ],
      "name": "players",
      "outputs": [
        {
          "internalType": "address payable",
          "name": "",
          "type": "address"
        }
      ],
      "stateMutability": "view",
      "type": "function",
      "constant": true
    },
    {
      "inputs": [
        {
          "internalType": "uint256",
          "name": "",
          "type": "uint256"
        }
      ],
      "name": "s_randomWords",
      "outputs": [
        {
          "internalType": "uint256",
          "name": "",
          "type": "uint256"
        }
      ],
      "stateMutability": "view",
      "type": "function",
      "constant": true
    },
    {
      "inputs": [
        {
          "internalType": "uint256",
          "name": "lottery",
          "type": "uint256"
        }
      ],
      "name": "getWinnerByLottery",
      "outputs": [
        {
          "internalType": "address payable",
          "name": "",
          "type": "address"
        }
      ],
      "stateMutability": "view",
      "type": "function",
      "constant": true
    },
    {
      "inputs": [],
      "name": "getBalance",
      "outputs": [
        {
          "internalType": "uint256",
          "name": "",
          "type": "uint256"
        }
      ],
      "stateMutability": "view",
      "type": "function",
      "constant": true
    },
    {
      "inputs": [],
      "name": "getPlayers",
      "outputs": [
        {
          "internalType": "address payable[]",
          "name": "",
          "type": "address[]"
        }
      ],
      "stateMutability": "view",
      "type": "function",
      "constant": true
    },
    {
      "inputs": [],
      "name": "getRandomNumbers",
      "outputs": [
        {
          "internalType": "uint256[]",
          "name": "",
          "type": "uint256[]"
        }
      ],
      "stateMutability": "view",
      "type": "function",
      "constant": true
    },
    {
      "inputs": [],
      "name": "enter",
      "outputs": [],
      "stateMutability": "payable",
      "type": "function",
      "payable": true
    },
    {
      "inputs": [],
      "name": "pickWinners",
      "outputs": [],
      "stateMutability": "nonpayable",
      "type": "function"
    },
    {
      "inputs": [],
      "name": "payWinners",
      "outputs": [],
      "stateMutability": "nonpayable",
      "type": "function"
    },
    {
      "inputs": [],
      "name": "startLottery",
      "outputs": [],
      "stateMutability": "nonpayable",
      "type": "function"
    },
    {
      "inputs": [],
      "name": "closeLottery",
      "outputs": [],
      "stateMutability": "nonpayable",
      "type": "function"
    },
    {
      "inputs": [],
      "name": "getLotteryState",
      "outputs": [
        {
          "internalType": "enum BIXCIPLottery.LotteryState",
          "name": "",
          "type": "uint8"
        }
      ],
      "stateMutability": "view",
      "type": "function",
      "constant": true
    }
  ],
  "bytecode": "0x60806040523480156200001157600080fd5b50604051620019b0380380620019b08339818101604052810190620000379190620001cc565b33600560006101000a81548173ffffffffffffffffffffffffffffffffffffffff021916908373ffffffffffffffffffffffffffffffffffffffff1602179055506001808190555080600360006101000a81548173ffffffffffffffffffffffffffffffffffffffff021916908373ffffffffffffffffffffffffffffffffffffffff160217905550620000d0620000d760201b60201c565b506200022d565b600560009054906101000a900473ffffffffffffffffffffffffffffffffffffffff1673ffffffffffffffffffffffffffffffffffffffff163373ffffffffffffffffffffffffffffffffffffffff16146200013257600080fd5b6000600560146101000a81548160ff021916908360018111156200015b576200015a620001fe565b5b0217905550565b600080fd5b600073ffffffffffffffffffffffffffffffffffffffff82169050919050565b6000620001948262000167565b9050919050565b620001a68162000187565b8114620001b257600080fd5b50565b600081519050620001c6816200019b565b92915050565b600060208284031215620001e557620001e462000162565b5b6000620001f584828501620001b5565b91505092915050565b7f4e487b7100000000000000000000000000000000000000000000000000000000600052602160045260246000fd5b611773806200023d6000396000f3fe6080604052600436106100dd5760003560e01c80636fd098161161007f578063e580f47b11610059578063e580f47b14610264578063e97dcb621461028f578063f6eaffc814610299578063f71d96cb146102d6576100dd565b80636fd098161461020b5780638b5b9ccc14610222578063dc07820f1461024d576100dd565b80634fdc84dc116100bb5780634fdc84dc146101615780635337448e1461018c5780636b68c03c146101a35780636d6fe230146101ce576100dd565b806312065fe0146100e2578063160344e21461010d578063281d098d14610124575b600080fd5b3480156100ee57600080fd5b506100f7610313565b6040516101049190610e27565b60405180910390f35b34801561011957600080fd5b5061012261031b565b005b34801561013057600080fd5b5061014b60048036038101906101469190610e82565b6103a2565b6040516101589190610ef0565b60405180910390f35b34801561016d57600080fd5b506101766103df565b6040516101839190610fc9565b60405180910390f35b34801561019857600080fd5b506101a1610437565b005b3480156101af57600080fd5b506101b86107a4565b6040516101c59190611062565b60405180910390f35b3480156101da57600080fd5b506101f560048036038101906101f09190610e82565b6107bb565b6040516102029190610ef0565b60405180910390f35b34801561021757600080fd5b506102206107ee565b005b34801561022e57600080fd5b506102376108b3565b604051610244919061113b565b60405180910390f35b34801561025957600080fd5b50610262610941565b005b34801561027057600080fd5b50610279610acb565b6040516102869190610e27565b60405180910390f35b610297610ad1565b005b3480156102a557600080fd5b506102c060048036038101906102bb9190610e82565b610bf5565b6040516102cd9190610e27565b60405180910390f35b3480156102e257600080fd5b506102fd60048036038101906102f89190610e82565b610c19565b60405161030a9190610ef0565b60405180910390f35b600047905090565b600560009054906101000a900473ffffffffffffffffffffffffffffffffffffffff1673ffffffffffffffffffffffffffffffffffffffff163373ffffffffffffffffffffffffffffffffffffffff161461037557600080fd5b6000600560146101000a81548160ff0219169083600181111561039b5761039a610feb565b5b0217905550565b60006002600083815260200190815260200160002060009054906101000a900473ffffffffffffffffffffffffffffffffffffffff169050919050565b6060600480548060200260200160405190810160405280929190818152602001828054801561042d57602002820191906000526020600020905b815481526020019060010190808311610419575b5050505050905090565b600560009054906101000a900473ffffffffffffffffffffffffffffffffffffffff1673ffffffffffffffffffffffffffffffffffffffff163373ffffffffffffffffffffffffffffffffffffffff161461049157600080fd5b6000600480549050116104d9576040517f08c379a00000000000000000000000000000000000000000000000000000000081526004016104d0906111e0565b60405180910390fd5b60005b600480549050816bffffffffffffffffffffffff1610156106d95760006004826bffffffffffffffffffffffff168154811061051b5761051a611200565b5b906000526020600020015490506000811161056b576040517f08c379a0000000000000000000000000000000000000000000000000000000008152600401610562906112a1565b60405180910390fd5b600080805490508261057d91906112f0565b90506000600480549050476105929190611350565b9050600082815481106105a8576105a7611200565b5b9060005260206000200160009054906101000a900473ffffffffffffffffffffffffffffffffffffffff1673ffffffffffffffffffffffffffffffffffffffff166108fc829081150290604051600060405180830381858888f19350505050158015610618573d6000803e3d6000fd5b506000828154811061062d5761062c611200565b5b9060005260206000200160009054906101000a900473ffffffffffffffffffffffffffffffffffffffff1660026000600154815260200190815260200160002060006101000a81548173ffffffffffffffffffffffffffffffffffffffff021916908373ffffffffffffffffffffffffffffffffffffffff160217905550600160008154809291906106be90611381565b919050555050505080806106d1906113e1565b9150506104dc565b50600067ffffffffffffffff8111156106f5576106f4611415565b5b6040519080825280602002602001820160405280156107235781602001602082028036833780820191505090505b5060009080519060200190610739929190610d1a565b50600067ffffffffffffffff81111561075557610754611415565b5b6040519080825280602002602001820160405280156107835781602001602082028036833780820191505090505b5060049080519060200190610799929190610da4565b506107a26107ee565b565b6000600560149054906101000a900460ff16905090565b60026020528060005260406000206000915054906101000a900473ffffffffffffffffffffffffffffffffffffffff1681565b600560009054906101000a900473ffffffffffffffffffffffffffffffffffffffff1673ffffffffffffffffffffffffffffffffffffffff163373ffffffffffffffffffffffffffffffffffffffff161461084857600080fd5b6108866040518060400160405280601381526020017f436c6f73696e6720746865206c6f747465727900000000000000000000000000815250610c58565b6001600560146101000a81548160ff021916908360018111156108ac576108ab610feb565b5b0217905550565b6060600080548060200260200160405190810160405280929190818152602001828054801561093757602002820191906000526020600020905b8160009054906101000a900473ffffffffffffffffffffffffffffffffffffffff1673ffffffffffffffffffffffffffffffffffffffff16815260200190600101908083116108ed575b5050505050905090565b600560009054906101000a900473ffffffffffffffffffffffffffffffffffffffff1673ffffffffffffffffffffffffffffffffffffffff163373ffffffffffffffffffffffffffffffffffffffff161461099b57600080fd5b600360009054906101000a900473ffffffffffffffffffffffffffffffffffffffff1673ffffffffffffffffffffffffffffffffffffffff1663e0c862896040518163ffffffff1660e01b8152600401600060405180830381600087803b158015610a0557600080fd5b505af1158015610a19573d6000803e3d6000fd5b50505050600360009054906101000a900473ffffffffffffffffffffffffffffffffffffffff1673ffffffffffffffffffffffffffffffffffffffff1663ce10b1fb6040518163ffffffff1660e01b8152600401600060405180830381865afa158015610a8a573d6000803e3d6000fd5b505050506040513d6000823e3d601f19601f82011682018060405250810190610ab39190611583565b60049080519060200190610ac8929190610da4565b50565b60015481565b662386f26fc100003411610b1a576040517f08c379a0000000000000000000000000000000000000000000000000000000008152600401610b1190611618565b60405180910390fd5b60006001811115610b2e57610b2d610feb565b5b600560149054906101000a900460ff166001811115610b5057610b4f610feb565b5b14610b90576040517f08c379a0000000000000000000000000000000000000000000000000000000008152600401610b8790611684565b60405180910390fd5b6000339080600181540180825580915050600190039060005260206000200160009091909190916101000a81548173ffffffffffffffffffffffffffffffffffffffff021916908373ffffffffffffffffffffffffffffffffffffffff160217905550565b60048181548110610c0557600080fd5b906000526020600020016000915090505481565b60008181548110610c2957600080fd5b906000526020600020016000915054906101000a900473ffffffffffffffffffffffffffffffffffffffff1681565b610cee81604051602401610c6c919061171b565b6040516020818303038152906040527f41304fac000000000000000000000000000000000000000000000000000000007bffffffffffffffffffffffffffffffffffffffffffffffffffffffff19166020820180517bffffffffffffffffffffffffffffffffffffffffffffffffffffffff8381831617835250505050610cf1565b50565b60008151905060006a636f6e736f6c652e6c6f679050602083016000808483855afa5050505050565b828054828255906000526020600020908101928215610d93579160200282015b82811115610d925782518260006101000a81548173ffffffffffffffffffffffffffffffffffffffff021916908373ffffffffffffffffffffffffffffffffffffffff16021790555091602001919060010190610d3a565b5b509050610da09190610df1565b5090565b828054828255906000526020600020908101928215610de0579160200282015b82811115610ddf578251825591602001919060010190610dc4565b5b509050610ded9190610df1565b5090565b5b80821115610e0a576000816000905550600101610df2565b5090565b6000819050919050565b610e2181610e0e565b82525050565b6000602082019050610e3c6000830184610e18565b92915050565b6000604051905090565b600080fd5b600080fd5b610e5f81610e0e565b8114610e6a57600080fd5b50565b600081359050610e7c81610e56565b92915050565b600060208284031215610e9857610e97610e4c565b5b6000610ea684828501610e6d565b91505092915050565b600073ffffffffffffffffffffffffffffffffffffffff82169050919050565b6000610eda82610eaf565b9050919050565b610eea81610ecf565b82525050565b6000602082019050610f056000830184610ee1565b92915050565b600081519050919050565b600082825260208201905092915050565b6000819050602082019050919050565b610f4081610e0e565b82525050565b6000610f528383610f37565b60208301905092915050565b6000602082019050919050565b6000610f7682610f0b565b610f808185610f16565b9350610f8b83610f27565b8060005b83811015610fbc578151610fa38882610f46565b9750610fae83610f5e565b925050600181019050610f8f565b5085935050505092915050565b60006020820190508181036000830152610fe38184610f6b565b905092915050565b7f4e487b7100000000000000000000000000000000000000000000000000000000600052602160045260246000fd5b6002811061102b5761102a610feb565b5b50565b600081905061103c8261101a565b919050565b600061104c8261102e565b9050919050565b61105c81611041565b82525050565b60006020820190506110776000830184611053565b92915050565b600081519050919050565b600082825260208201905092915050565b6000819050602082019050919050565b6110b281610ecf565b82525050565b60006110c483836110a9565b60208301905092915050565b6000602082019050919050565b60006110e88261107d565b6110f28185611088565b93506110fd83611099565b8060005b8381101561112e57815161111588826110b8565b9750611120836110d0565b925050600181019050611101565b5085935050505092915050565b6000602082019050818103600083015261115581846110dd565b905092915050565b600082825260208201905092915050565b7f5468652072616e646f6d206e756d62657220686173206e6f742079657420626560008201527f656e2067656e6572617465640000000000000000000000000000000000000000602082015250565b60006111ca602c8361115d565b91506111d58261116e565b604082019050919050565b600060208201905081810360008301526111f9816111bd565b9050919050565b7f4e487b7100000000000000000000000000000000000000000000000000000000600052603260045260246000fd5b7f4d7573742068617665206120736f75726365206f662072616e646f6d6e65737360008201527f206265666f72652063686f6f73696e672077696e6e6572000000000000000000602082015250565b600061128b60378361115d565b91506112968261122f565b604082019050919050565b600060208201905081810360008301526112ba8161127e565b9050919050565b7f4e487b7100000000000000000000000000000000000000000000000000000000600052601260045260246000fd5b60006112fb82610e0e565b915061130683610e0e565b925082611316576113156112c1565b5b828206905092915050565b7f4e487b7100000000000000000000000000000000000000000000000000000000600052601160045260246000fd5b600061135b82610e0e565b915061136683610e0e565b925082611376576113756112c1565b5b828204905092915050565b600061138c82610e0e565b91507fffffffffffffffffffffffffffffffffffffffffffffffffffffffffffffffff82036113be576113bd611321565b5b600182019050919050565b60006bffffffffffffffffffffffff82169050919050565b60006113ec826113c9565b91506bffffffffffffffffffffffff820361140a57611409611321565b5b600182019050919050565b7f4e487b7100000000000000000000000000000000000000000000000000000000600052604160045260246000fd5b600080fd5b6000601f19601f8301169050919050565b61146382611449565b810181811067ffffffffffffffff8211171561148257611481611415565b5b80604052505050565b6000611495610e42565b90506114a1828261145a565b919050565b600067ffffffffffffffff8211156114c1576114c0611415565b5b602082029050602081019050919050565b600080fd5b6000815190506114e681610e56565b92915050565b60006114ff6114fa846114a6565b61148b565b90508083825260208201905060208402830185811115611522576115216114d2565b5b835b8181101561154b578061153788826114d7565b845260208401935050602081019050611524565b5050509392505050565b600082601f83011261156a57611569611444565b5b815161157a8482602086016114ec565b91505092915050565b60006020828403121561159957611598610e4c565b5b600082015167ffffffffffffffff8111156115b7576115b6610e51565b5b6115c384828501611555565b91505092915050565b7f496e73756666696369656e7420616d6f756e7400000000000000000000000000600082015250565b600061160260138361115d565b915061160d826115cc565b602082019050919050565b60006020820190508181036000830152611631816115f5565b9050919050565b7f546865206c6f747465727920697320636c6f7365640000000000000000000000600082015250565b600061166e60158361115d565b915061167982611638565b602082019050919050565b6000602082019050818103600083015261169d81611661565b9050919050565b600081519050919050565b60005b838110156116cd5780820151818401526020810190506116b2565b838111156116dc576000848401525b50505050565b60006116ed826116a4565b6116f7818561115d565b93506117078185602086016116af565b61171081611449565b840191505092915050565b6000602082019050818103600083015261173581846116e2565b90509291505056fea264697066735822122018b894bbe260d433ca415b04ef3cdc3b7214fc4c3ba48b9072f35e5ea92a66f064736f6c634300080e0033",
  "immutableReferences": {},
  "source": "// SPDX-License-Identifier: UNLICENSED\n// An example of a consumer contract that relies on a subscription for funding.\npragma solidity ^0.8.7;\n\nimport \"../interfaces/IRandomNumberGenerator.sol\";\nimport \"hardhat/console.sol\";\n\ncontract BIXCIPLottery {\n    address payable[] public players;\n    uint256 public lotteryId;\n    mapping(uint256 => address payable) public lotteryHistory;\n    IRandomNumberGenerator randomNumberGenerator;\n    uint256[] public s_randomWords;\n    address s_owner;\n    enum LotteryState {\n        OPEN,\n        CLOSED\n    }\n\n    LotteryState lotteryState;\n\n    constructor(address randomNumberGeneratorAddress) {\n        s_owner = msg.sender;\n        lotteryId = 1;\n        randomNumberGenerator = IRandomNumberGenerator(\n            randomNumberGeneratorAddress\n        );\n        startLottery();\n    }\n\n    function getWinnerByLottery(uint256 lottery)\n        public\n        view\n        returns (address payable)\n    {\n        return lotteryHistory[lottery];\n    }\n\n    function getBalance() public view returns (uint256) {\n        return address(this).balance;\n    }\n\n    function getPlayers() public view returns (address payable[] memory) {\n        return players;\n    }\n\n    function getRandomNumbers() public view returns (uint256[] memory) {\n        return s_randomWords;\n    }\n\n    function enter() public payable {\n        require(msg.value > .01 ether, \"Insufficient amount\");\n\n        require(lotteryState == LotteryState.OPEN, \"The lottery is closed\");\n\n        players.push(payable(msg.sender));\n    }\n\n    function pickWinners() public onlyOwner {\n        randomNumberGenerator.requestRandomWords();\n        s_randomWords = randomNumberGenerator.getRandomWords();\n    }\n\n    function payWinners() public onlyOwner {\n        require(\n            s_randomWords.length > 0,\n            \"The random number has not yet been generated\"\n        );\n\n        for (uint96 i = 0; i < s_randomWords.length; i++) {\n            uint256 randomResult = s_randomWords[i];\n            require(\n                randomResult > 0,\n                \"Must have a source of randomness before choosing winner\"\n            );\n            uint256 index = randomResult % players.length;\n            uint256 amount = address(this).balance / s_randomWords.length;\n            players[index].transfer(amount);\n\n            lotteryHistory[lotteryId] = players[index];\n            lotteryId++;\n        }\n\n        // reset the state of the contract\n        players = new address payable[](0);\n        s_randomWords = new uint256[](0);\n        closeLottery();\n    }\n\n    function startLottery() public onlyOwner {\n        lotteryState = LotteryState.OPEN;\n    }\n\n    function closeLottery() public onlyOwner {\n        console.log(\"Closing the lottery\");\n        lotteryState = LotteryState.CLOSED;\n    }\n\n    function getLotteryState() public view returns (LotteryState) {\n        return lotteryState;\n    }\n\n    modifier onlyOwner() {\n        require(msg.sender == s_owner);\n        _;\n    }\n}\n",
  "sourcePath": "/home/raphael/blockchain/bixcip-lottery/contracts/BIXCIPLottery.sol",
  "compiler": {
    "name": "solc",
    "version": "0.8.14+commit.80d49f37.Emscripten.clang"
  },
  "schemaVersion": "3.4.7",
  "updatedAt": "2022-06-15T05:48:13.768Z",
  "networkType": "ethereum",
  "devdoc": {
    "kind": "dev",
    "methods": {},
    "version": 1
  },
  "userdoc": {
    "kind": "user",
    "methods": {},
    "version": 1
  }
}