{
  "contractName": "BIXCIPLottery",
  "abi": [
    {
      "inputs": [
        {
          "internalType": "address",
          "name": "randomNumberGeneratorAddress",
          "type": "address"
        }
      ],
      "stateMutability": "nonpayable",
      "type": "constructor"
    },
    {
      "inputs": [
        {
          "internalType": "uint256",
          "name": "",
          "type": "uint256"
        }
      ],
      "name": "lotteryHistory",
      "outputs": [
        {
          "internalType": "address payable",
          "name": "",
          "type": "address"
        }
      ],
      "stateMutability": "view",
      "type": "function",
      "constant": true
    },
    {
      "inputs": [],
      "name": "lotteryId",
      "outputs": [
        {
          "internalType": "uint256",
          "name": "",
          "type": "uint256"
        }
      ],
      "stateMutability": "view",
      "type": "function",
      "constant": true
    },
    {
      "inputs": [
        {
          "internalType": "uint256",
          "name": "",
          "type": "uint256"
        }
      ],
      "name": "players",
      "outputs": [
        {
          "internalType": "address payable",
          "name": "",
          "type": "address"
        }
      ],
      "stateMutability": "view",
      "type": "function",
      "constant": true
    },
    {
      "inputs": [
        {
          "internalType": "uint256",
          "name": "",
          "type": "uint256"
        }
      ],
      "name": "s_randomWords",
      "outputs": [
        {
          "internalType": "uint256",
          "name": "",
          "type": "uint256"
        }
      ],
      "stateMutability": "view",
      "type": "function",
      "constant": true
    },
    {
      "inputs": [
        {
          "internalType": "uint256",
          "name": "lottery",
          "type": "uint256"
        }
      ],
      "name": "getWinnerByLottery",
      "outputs": [
        {
          "internalType": "address payable",
          "name": "",
          "type": "address"
        }
      ],
      "stateMutability": "view",
      "type": "function",
      "constant": true
    },
    {
      "inputs": [],
      "name": "getBalance",
      "outputs": [
        {
          "internalType": "uint256",
          "name": "",
          "type": "uint256"
        }
      ],
      "stateMutability": "view",
      "type": "function",
      "constant": true
    },
    {
      "inputs": [],
      "name": "getPlayers",
      "outputs": [
        {
          "internalType": "address payable[]",
          "name": "",
          "type": "address[]"
        }
      ],
      "stateMutability": "view",
      "type": "function",
      "constant": true
    },
    {
      "inputs": [],
      "name": "enter",
      "outputs": [],
      "stateMutability": "payable",
      "type": "function",
      "payable": true
    },
    {
      "inputs": [],
      "name": "pickWinner",
      "outputs": [],
      "stateMutability": "nonpayable",
      "type": "function"
    },
    {
      "inputs": [],
      "name": "payWinner",
      "outputs": [],
      "stateMutability": "nonpayable",
      "type": "function"
    }
  ],
  "bytecode": "0x608060405234801561001057600080fd5b506040516200106a3803806200106a83398181016040528101906100349190610126565b33600560006101000a81548173ffffffffffffffffffffffffffffffffffffffff021916908373ffffffffffffffffffffffffffffffffffffffff1602179055506001808190555080600360006101000a81548173ffffffffffffffffffffffffffffffffffffffff021916908373ffffffffffffffffffffffffffffffffffffffff16021790555050610153565b600080fd5b600073ffffffffffffffffffffffffffffffffffffffff82169050919050565b60006100f3826100c8565b9050919050565b610103816100e8565b811461010e57600080fd5b50565b600081519050610120816100fa565b92915050565b60006020828403121561013c5761013b6100c3565b5b600061014a84828501610111565b91505092915050565b610f0780620001636000396000f3fe6080604052600436106100915760003560e01c8063be71248a11610059578063be71248a1461017d578063e580f47b14610194578063e97dcb62146101bf578063f6eaffc8146101c9578063f71d96cb1461020657610091565b806312065fe014610096578063281d098d146100c15780635d495aea146100fe5780636d6fe230146101155780638b5b9ccc14610152575b600080fd5b3480156100a257600080fd5b506100ab610243565b6040516100b8919061091b565b60405180910390f35b3480156100cd57600080fd5b506100e860048036038101906100e39190610976565b61024b565b6040516100f591906109e4565b60405180910390f35b34801561010a57600080fd5b50610113610288565b005b34801561012157600080fd5b5061013c60048036038101906101379190610976565b610366565b60405161014991906109e4565b60405180910390f35b34801561015e57600080fd5b50610167610399565b6040516101749190610abd565b60405180910390f35b34801561018957600080fd5b50610192610427565b005b3480156101a057600080fd5b506101a961072d565b6040516101b6919061091b565b60405180910390f35b6101c7610733565b005b3480156101d557600080fd5b506101f060048036038101906101eb9190610976565b6107ab565b6040516101fd919061091b565b60405180910390f35b34801561021257600080fd5b5061022d60048036038101906102289190610976565b6107cf565b60405161023a91906109e4565b60405180910390f35b600047905090565b60006002600083815260200190815260200160002060009054906101000a900473ffffffffffffffffffffffffffffffffffffffff169050919050565b600560009054906101000a900473ffffffffffffffffffffffffffffffffffffffff1673ffffffffffffffffffffffffffffffffffffffff163373ffffffffffffffffffffffffffffffffffffffff16146102e257600080fd5b600360009054906101000a900473ffffffffffffffffffffffffffffffffffffffff1673ffffffffffffffffffffffffffffffffffffffff1663e0c862896040518163ffffffff1660e01b8152600401600060405180830381600087803b15801561034c57600080fd5b505af1158015610360573d6000803e3d6000fd5b50505050565b60026020528060005260406000206000915054906101000a900473ffffffffffffffffffffffffffffffffffffffff1681565b6060600080548060200260200160405190810160405280929190818152602001828054801561041d57602002820191906000526020600020905b8160009054906101000a900473ffffffffffffffffffffffffffffffffffffffff1673ffffffffffffffffffffffffffffffffffffffff16815260200190600101908083116103d3575b5050505050905090565b600360009054906101000a900473ffffffffffffffffffffffffffffffffffffffff1673ffffffffffffffffffffffffffffffffffffffff1663ce10b1fb6040518163ffffffff1660e01b8152600401600060405180830381865afa158015610494573d6000803e3d6000fd5b505050506040513d6000823e3d601f19601f820116820180604052508101906104bd9190610c4d565b600490805190602001906104d292919061080e565b5060006004805490501161051b576040517f08c379a000000000000000000000000000000000000000000000000000000000815260040161051290610d19565b60405180910390fd5b6000600460008154811061053257610531610d39565b5b9060005260206000200154905060008111610582576040517f08c379a000000000000000000000000000000000000000000000000000000000815260040161057990610dda565b60405180910390fd5b60008080549050826105949190610e29565b9050600081815481106105aa576105a9610d39565b5b9060005260206000200160009054906101000a900473ffffffffffffffffffffffffffffffffffffffff1673ffffffffffffffffffffffffffffffffffffffff166108fc479081150290604051600060405180830381858888f1935050505015801561061a573d6000803e3d6000fd5b506000818154811061062f5761062e610d39565b5b9060005260206000200160009054906101000a900473ffffffffffffffffffffffffffffffffffffffff1660026000600154815260200190815260200160002060006101000a81548173ffffffffffffffffffffffffffffffffffffffff021916908373ffffffffffffffffffffffffffffffffffffffff160217905550600160008154809291906106c090610e89565b9190505550600067ffffffffffffffff8111156106e0576106df610af5565b5b60405190808252806020026020018201604052801561070e5781602001602082028036833780820191505090505b506000908051906020019061072492919061085b565b50600091505050565b60015481565b662386f26fc10000341161074657600080fd5b6000339080600181540180825580915050600190039060005260206000200160009091909190916101000a81548173ffffffffffffffffffffffffffffffffffffffff021916908373ffffffffffffffffffffffffffffffffffffffff160217905550565b600481815481106107bb57600080fd5b906000526020600020016000915090505481565b600081815481106107df57600080fd5b906000526020600020016000915054906101000a900473ffffffffffffffffffffffffffffffffffffffff1681565b82805482825590600052602060002090810192821561084a579160200282015b8281111561084957825182559160200191906001019061082e565b5b50905061085791906108e5565b5090565b8280548282559060005260206000209081019282156108d4579160200282015b828111156108d35782518260006101000a81548173ffffffffffffffffffffffffffffffffffffffff021916908373ffffffffffffffffffffffffffffffffffffffff1602179055509160200191906001019061087b565b5b5090506108e191906108e5565b5090565b5b808211156108fe5760008160009055506001016108e6565b5090565b6000819050919050565b61091581610902565b82525050565b6000602082019050610930600083018461090c565b92915050565b6000604051905090565b600080fd5b600080fd5b61095381610902565b811461095e57600080fd5b50565b6000813590506109708161094a565b92915050565b60006020828403121561098c5761098b610940565b5b600061099a84828501610961565b91505092915050565b600073ffffffffffffffffffffffffffffffffffffffff82169050919050565b60006109ce826109a3565b9050919050565b6109de816109c3565b82525050565b60006020820190506109f960008301846109d5565b92915050565b600081519050919050565b600082825260208201905092915050565b6000819050602082019050919050565b610a34816109c3565b82525050565b6000610a468383610a2b565b60208301905092915050565b6000602082019050919050565b6000610a6a826109ff565b610a748185610a0a565b9350610a7f83610a1b565b8060005b83811015610ab0578151610a978882610a3a565b9750610aa283610a52565b925050600181019050610a83565b5085935050505092915050565b60006020820190508181036000830152610ad78184610a5f565b905092915050565b600080fd5b6000601f19601f8301169050919050565b7f4e487b7100000000000000000000000000000000000000000000000000000000600052604160045260246000fd5b610b2d82610ae4565b810181811067ffffffffffffffff82111715610b4c57610b4b610af5565b5b80604052505050565b6000610b5f610936565b9050610b6b8282610b24565b919050565b600067ffffffffffffffff821115610b8b57610b8a610af5565b5b602082029050602081019050919050565b600080fd5b600081519050610bb08161094a565b92915050565b6000610bc9610bc484610b70565b610b55565b90508083825260208201905060208402830185811115610bec57610beb610b9c565b5b835b81811015610c155780610c018882610ba1565b845260208401935050602081019050610bee565b5050509392505050565b600082601f830112610c3457610c33610adf565b5b8151610c44848260208601610bb6565b91505092915050565b600060208284031215610c6357610c62610940565b5b600082015167ffffffffffffffff811115610c8157610c80610945565b5b610c8d84828501610c1f565b91505092915050565b600082825260208201905092915050565b7f5468652072616e646f6d206e756d62657220686173206e6f742079657420626560008201527f656e2067656e6572617465640000000000000000000000000000000000000000602082015250565b6000610d03602c83610c96565b9150610d0e82610ca7565b604082019050919050565b60006020820190508181036000830152610d3281610cf6565b9050919050565b7f4e487b7100000000000000000000000000000000000000000000000000000000600052603260045260246000fd5b7f4d7573742068617665206120736f75726365206f662072616e646f6d6e65737360008201527f206265666f72652063686f6f73696e672077696e6e6572000000000000000000602082015250565b6000610dc4603783610c96565b9150610dcf82610d68565b604082019050919050565b60006020820190508181036000830152610df381610db7565b9050919050565b7f4e487b7100000000000000000000000000000000000000000000000000000000600052601260045260246000fd5b6000610e3482610902565b9150610e3f83610902565b925082610e4f57610e4e610dfa565b5b828206905092915050565b7f4e487b7100000000000000000000000000000000000000000000000000000000600052601160045260246000fd5b6000610e9482610902565b91507fffffffffffffffffffffffffffffffffffffffffffffffffffffffffffffffff8203610ec657610ec5610e5a565b5b60018201905091905056fea26469706673582212200ad6fa4d9a06c3ac398f42c2203d9eac974453186e5ae64f731ba657ac58822764736f6c634300080e0033",
  "immutableReferences": {},
  "source": "// SPDX-License-Identifier: UNLICENSED\n// An example of a consumer contract that relies on a subscription for funding.\npragma solidity ^0.8.7;\n\nimport \"../interfaces/IRandomNumberGenerator.sol\";\n\ncontract BIXCIPLottery {\n    address payable[] public players;\n    uint256 public lotteryId;\n    mapping(uint256 => address payable) public lotteryHistory;\n    IRandomNumberGenerator randomNumberGenerator;\n    uint256[] public s_randomWords;\n    address s_owner;\n\n    constructor(address randomNumberGeneratorAddress) {\n        s_owner = msg.sender;\n        lotteryId = 1;\n        randomNumberGenerator = IRandomNumberGenerator(\n            randomNumberGeneratorAddress\n        );\n    }\n\n    function getWinnerByLottery(uint256 lottery)\n        public\n        view\n        returns (address payable)\n    {\n        return lotteryHistory[lottery];\n    }\n\n    function getBalance() public view returns (uint256) {\n        return address(this).balance;\n    }\n\n    function getPlayers() public view returns (address payable[] memory) {\n        return players;\n    }\n\n    function enter() public payable {\n        require(msg.value > .01 ether);\n\n        // address of player entering lottery\n        players.push(payable(msg.sender));\n    }\n\n    function pickWinner() public onlyOwner {\n        randomNumberGenerator.requestRandomWords();\n        // getRandomNumber();\n    }\n\n    function payWinner() public {\n        s_randomWords = randomNumberGenerator.getRandomWords();\n        require(\n            s_randomWords.length > 0,\n            \"The random number has not yet been generated\"\n        );\n        uint256 randomResult = s_randomWords[0];\n        require(\n            randomResult > 0,\n            \"Must have a source of randomness before choosing winner\"\n        );\n        uint256 index = randomResult % players.length;\n        players[index].transfer(address(this).balance);\n\n        lotteryHistory[lotteryId] = players[index];\n        lotteryId++;\n\n        // reset the state of the contract\n        players = new address payable[](0);\n        randomResult = 0;\n    }\n\n    modifier onlyOwner() {\n        require(msg.sender == s_owner);\n        _;\n    }\n}\n",
  "sourcePath": "/home/raphael/blockchain/bixcip-lottery/contracts/BIXCIPLottery.sol",
  "compiler": {
    "name": "solc",
    "version": "0.8.14+commit.80d49f37.Emscripten.clang"
  },
  "schemaVersion": "3.4.7",
  "updatedAt": "2022-06-08T10:47:18.935Z",
  "networkType": "ethereum",
  "devdoc": {
    "kind": "dev",
    "methods": {},
    "version": 1
  },
  "userdoc": {
    "kind": "user",
    "methods": {},
    "version": 1
  }
}