{
  "contractName": "BIXCIPLottery",
  "abi": [
    {
      "inputs": [
        {
          "internalType": "address",
          "name": "_randomNumberGeneratorAddress",
          "type": "address"
        },
        {
          "internalType": "address",
          "name": "_biixToken",
          "type": "address"
        }
      ],
      "stateMutability": "nonpayable",
      "type": "constructor"
    },
    {
      "inputs": [],
      "name": "biixToken",
      "outputs": [
        {
          "internalType": "address",
          "name": "",
          "type": "address"
        }
      ],
      "stateMutability": "view",
      "type": "function"
    },
    {
      "inputs": [],
      "name": "biixValue",
      "outputs": [
        {
          "internalType": "uint256",
          "name": "",
          "type": "uint256"
        }
      ],
      "stateMutability": "view",
      "type": "function"
    },
    {
      "inputs": [
        {
          "internalType": "uint256",
          "name": "",
          "type": "uint256"
        }
      ],
      "name": "lotteryHistory",
      "outputs": [
        {
          "internalType": "address",
          "name": "",
          "type": "address"
        }
      ],
      "stateMutability": "view",
      "type": "function"
    },
    {
      "inputs": [],
      "name": "lotteryId",
      "outputs": [
        {
          "internalType": "uint256",
          "name": "",
          "type": "uint256"
        }
      ],
      "stateMutability": "view",
      "type": "function"
    },
    {
      "inputs": [
        {
          "internalType": "uint256",
          "name": "",
          "type": "uint256"
        }
      ],
      "name": "players",
      "outputs": [
        {
          "internalType": "address payable",
          "name": "",
          "type": "address"
        }
      ],
      "stateMutability": "view",
      "type": "function"
    },
    {
      "inputs": [
        {
          "internalType": "uint256",
          "name": "",
          "type": "uint256"
        }
      ],
      "name": "s_randomWords",
      "outputs": [
        {
          "internalType": "uint256",
          "name": "",
          "type": "uint256"
        }
      ],
      "stateMutability": "view",
      "type": "function"
    },
    {
      "inputs": [],
      "name": "ticketFee",
      "outputs": [
        {
          "internalType": "uint256",
          "name": "",
          "type": "uint256"
        }
      ],
      "stateMutability": "view",
      "type": "function"
    },
    {
      "inputs": [
        {
          "internalType": "uint256",
          "name": "",
          "type": "uint256"
        }
      ],
      "name": "winners",
      "outputs": [
        {
          "internalType": "address",
          "name": "",
          "type": "address"
        }
      ],
      "stateMutability": "view",
      "type": "function"
    },
    {
      "inputs": [
        {
          "internalType": "uint256",
          "name": "lottery",
          "type": "uint256"
        }
      ],
      "name": "getWinnerByLottery",
      "outputs": [
        {
          "internalType": "address",
          "name": "",
          "type": "address"
        }
      ],
      "stateMutability": "view",
      "type": "function"
    },
    {
      "inputs": [],
      "name": "getBalance",
      "outputs": [
        {
          "internalType": "uint256",
          "name": "",
          "type": "uint256"
        }
      ],
      "stateMutability": "view",
      "type": "function"
    },
    {
      "inputs": [],
      "name": "getPlayers",
      "outputs": [
        {
          "internalType": "address payable[]",
          "name": "",
          "type": "address[]"
        }
      ],
      "stateMutability": "view",
      "type": "function"
    },
    {
      "inputs": [],
      "name": "getRandomNumbers",
      "outputs": [
        {
          "internalType": "uint256[]",
          "name": "",
          "type": "uint256[]"
        }
      ],
      "stateMutability": "view",
      "type": "function"
    },
    {
      "inputs": [],
      "name": "enter",
      "outputs": [],
      "stateMutability": "nonpayable",
      "type": "function"
    },
    {
      "inputs": [
        {
          "internalType": "uint256",
          "name": "amount",
          "type": "uint256"
        }
      ],
      "name": "sendBIIX",
      "outputs": [],
      "stateMutability": "payable",
      "type": "function"
    },
    {
      "inputs": [
        {
          "internalType": "uint256",
          "name": "amount",
          "type": "uint256"
        }
      ],
      "name": "convertBIIXToEth",
      "outputs": [
        {
          "internalType": "uint256",
          "name": "",
          "type": "uint256"
        }
      ],
      "stateMutability": "view",
      "type": "function"
    },
    {
      "inputs": [],
      "name": "getTicketFee",
      "outputs": [
        {
          "internalType": "uint256",
          "name": "",
          "type": "uint256"
        }
      ],
      "stateMutability": "view",
      "type": "function"
    },
    {
      "inputs": [],
      "name": "getBIIXValue",
      "outputs": [
        {
          "internalType": "uint256",
          "name": "",
          "type": "uint256"
        }
      ],
      "stateMutability": "view",
      "type": "function"
    },
    {
      "inputs": [
        {
          "internalType": "uint256",
          "name": "_biixValue",
          "type": "uint256"
        }
      ],
      "name": "setBIIXValue",
      "outputs": [],
      "stateMutability": "nonpayable",
      "type": "function"
    },
    {
      "inputs": [
        {
          "internalType": "uint256",
          "name": "_ticketFee",
          "type": "uint256"
        }
      ],
      "name": "setTicketFee",
      "outputs": [],
      "stateMutability": "nonpayable",
      "type": "function"
    },
    {
      "inputs": [],
      "name": "pickWinners",
      "outputs": [],
      "stateMutability": "nonpayable",
      "type": "function"
    },
    {
      "inputs": [],
      "name": "payWinners",
      "outputs": [],
      "stateMutability": "nonpayable",
      "type": "function"
    },
    {
      "inputs": [],
      "name": "startLottery",
      "outputs": [],
      "stateMutability": "nonpayable",
      "type": "function"
    },
    {
      "inputs": [],
      "name": "closeLottery",
      "outputs": [],
      "stateMutability": "nonpayable",
      "type": "function"
    },
    {
      "inputs": [],
      "name": "getLotteryState",
      "outputs": [
        {
          "internalType": "enum BIXCIPLottery.LotteryState",
          "name": "",
          "type": "uint8"
        }
      ],
      "stateMutability": "view",
      "type": "function"
    }
  ],
  "bytecode": "0x608060405266038d7ea4c6800060075568056bc75e2d631000006008553480156200002957600080fd5b50604051620021f3380380620021f383398181016040528101906200004f919062000226565b33600560006101000a81548173ffffffffffffffffffffffffffffffffffffffff021916908373ffffffffffffffffffffffffffffffffffffffff1602179055506001808190555081600360006101000a81548173ffffffffffffffffffffffffffffffffffffffff021916908373ffffffffffffffffffffffffffffffffffffffff16021790555080600660006101000a81548173ffffffffffffffffffffffffffffffffffffffff021916908373ffffffffffffffffffffffffffffffffffffffff160217905550620001296200013160201b60201c565b50506200029c565b600560009054906101000a900473ffffffffffffffffffffffffffffffffffffffff1673ffffffffffffffffffffffffffffffffffffffff163373ffffffffffffffffffffffffffffffffffffffff16146200018c57600080fd5b6000600a60006101000a81548160ff02191690836001811115620001b557620001b46200026d565b5b0217905550565b600080fd5b600073ffffffffffffffffffffffffffffffffffffffff82169050919050565b6000620001ee82620001c1565b9050919050565b6200020081620001e1565b81146200020c57600080fd5b50565b6000815190506200022081620001f5565b92915050565b6000806040838503121562000240576200023f620001bc565b5b600062000250858286016200020f565b925050602062000263858286016200020f565b9150509250929050565b7f4e487b7100000000000000000000000000000000000000000000000000000000600052602160045260246000fd5b611f4780620002ac6000396000f3fe60806040526004361061014b5760003560e01c8063a2fb1175116100b6578063dc07820f1161006f578063dc07820f1461044f578063e580f47b14610466578063e97dcb6214610491578063e9cd88ef146104a8578063f6eaffc8146104d3578063f71d96cb146105105761014b565b8063a2fb11751461034e578063a949a8dd1461038b578063aae403fa146103b6578063b1c19515146103df578063b2105f421461040a578063b5c2e523146104335761014b565b80636b68c03c116101085780636b68c03c1461024e5780636d6fe230146102795780636fd09816146102b65780638b5b9ccc146102cd5780639f0d4318146102f8578063a0994c47146103235761014b565b806312065fe014610150578063160344e21461017b578063281d098d146101925780632f7b163c146101cf5780634fdc84dc1461020c5780635337448e14610237575b600080fd5b34801561015c57600080fd5b5061016561054d565b6040516101729190611497565b60405180910390f35b34801561018757600080fd5b50610190610555565b005b34801561019e57600080fd5b506101b960048036038101906101b491906114f2565b6105dc565b6040516101c69190611560565b60405180910390f35b3480156101db57600080fd5b506101f660048036038101906101f191906114f2565b610619565b6040516102039190611497565b60405180910390f35b34801561021857600080fd5b50610221610630565b60405161022e9190611639565b60405180910390f35b34801561024357600080fd5b5061024c610688565b005b34801561025a57600080fd5b50610263610a7c565b60405161027091906116d2565b60405180910390f35b34801561028557600080fd5b506102a0600480360381019061029b91906114f2565b610a93565b6040516102ad9190611560565b60405180910390f35b3480156102c257600080fd5b506102cb610ac6565b005b3480156102d957600080fd5b506102e2610b4d565b6040516102ef91906117bd565b60405180910390f35b34801561030457600080fd5b5061030d610bdb565b60405161031a9190611497565b60405180910390f35b34801561032f57600080fd5b50610338610be1565b6040516103459190611497565b60405180910390f35b34801561035a57600080fd5b50610375600480360381019061037091906114f2565b610be7565b6040516103829190611560565b60405180910390f35b34801561039757600080fd5b506103a0610c26565b6040516103ad9190611497565b60405180910390f35b3480156103c257600080fd5b506103dd60048036038101906103d891906114f2565b610c30565b005b3480156103eb57600080fd5b506103f4610c94565b6040516104019190611497565b60405180910390f35b34801561041657600080fd5b50610431600480360381019061042c91906114f2565b610c9e565b005b61044d600480360381019061044891906114f2565b610d02565b005b34801561045b57600080fd5b50610464610df1565b005b34801561047257600080fd5b5061047b6110d8565b6040516104889190611497565b60405180910390f35b34801561049d57600080fd5b506104a66110de565b005b3480156104b457600080fd5b506104bd611301565b6040516104ca9190611560565b60405180910390f35b3480156104df57600080fd5b506104fa60048036038101906104f591906114f2565b611327565b6040516105079190611497565b60405180910390f35b34801561051c57600080fd5b50610537600480360381019061053291906114f2565b61134b565b60405161054491906117ee565b60405180910390f35b600047905090565b600560009054906101000a900473ffffffffffffffffffffffffffffffffffffffff1673ffffffffffffffffffffffffffffffffffffffff163373ffffffffffffffffffffffffffffffffffffffff16146105af57600080fd5b6000600a60006101000a81548160ff021916908360018111156105d5576105d461165b565b5b0217905550565b60006002600083815260200190815260200160002060009054906101000a900473ffffffffffffffffffffffffffffffffffffffff169050919050565b6000600754826106299190611838565b9050919050565b6060600480548060200260200160405190810160405280929190818152602001828054801561067e57602002820191906000526020600020905b81548152602001906001019080831161066a575b5050505050905090565b600560009054906101000a900473ffffffffffffffffffffffffffffffffffffffff1673ffffffffffffffffffffffffffffffffffffffff163373ffffffffffffffffffffffffffffffffffffffff16146106e257600080fd5b60006004805490501161072a576040517f08c379a000000000000000000000000000000000000000000000000000000000815260040161072190611915565b60405180910390fd5b60005b600980549050816bffffffffffffffffffffffff1610156109b1576000600980549050600660009054906101000a900473ffffffffffffffffffffffffffffffffffffffff1673ffffffffffffffffffffffffffffffffffffffff166370a08231306040518263ffffffff1660e01b81526004016107ab9190611560565b602060405180830381865afa1580156107c8573d6000803e3d6000fd5b505050506040513d601f19601f820116820180604052508101906107ec919061194a565b6107f691906119a6565b9050600660009054906101000a900473ffffffffffffffffffffffffffffffffffffffff1673ffffffffffffffffffffffffffffffffffffffff1663a9059cbb6009846bffffffffffffffffffffffff1681548110610858576108576119d7565b5b9060005260206000200160009054906101000a900473ffffffffffffffffffffffffffffffffffffffff16836040518363ffffffff1660e01b81526004016108a1929190611a06565b6020604051808303816000875af11580156108c0573d6000803e3d6000fd5b505050506040513d601f19601f820116820180604052508101906108e49190611a67565b506009826bffffffffffffffffffffffff1681548110610907576109066119d7565b5b9060005260206000200160009054906101000a900473ffffffffffffffffffffffffffffffffffffffff1660026000600154815260200190815260200160002060006101000a81548173ffffffffffffffffffffffffffffffffffffffff021916908373ffffffffffffffffffffffffffffffffffffffff1602179055506001600081548092919061099890611a94565b91905055505080806109a990611af4565b91505061072d565b50600067ffffffffffffffff8111156109cd576109cc611b28565b5b6040519080825280602002602001820160405280156109fb5781602001602082028036833780820191505090505b5060009080519060200190610a1192919061138a565b50600067ffffffffffffffff811115610a2d57610a2c611b28565b5b604051908082528060200260200182016040528015610a5b5781602001602082028036833780820191505090505b5060049080519060200190610a71929190611414565b50610a7a610ac6565b565b6000600a60009054906101000a900460ff16905090565b60026020528060005260406000206000915054906101000a900473ffffffffffffffffffffffffffffffffffffffff1681565b600560009054906101000a900473ffffffffffffffffffffffffffffffffffffffff1673ffffffffffffffffffffffffffffffffffffffff163373ffffffffffffffffffffffffffffffffffffffff1614610b2057600080fd5b6001600a60006101000a81548160ff02191690836001811115610b4657610b4561165b565b5b0217905550565b60606000805480602002602001604051908101604052809291908181526020018280548015610bd157602002820191906000526020600020905b8160009054906101000a900473ffffffffffffffffffffffffffffffffffffffff1673ffffffffffffffffffffffffffffffffffffffff1681526020019060010190808311610b87575b5050505050905090565b60075481565b60085481565b60098181548110610bf757600080fd5b906000526020600020016000915054906101000a900473ffffffffffffffffffffffffffffffffffffffff1681565b6000600754905090565b600560009054906101000a900473ffffffffffffffffffffffffffffffffffffffff1673ffffffffffffffffffffffffffffffffffffffff163373ffffffffffffffffffffffffffffffffffffffff1614610c8a57600080fd5b8060078190555050565b6000600854905090565b600560009054906101000a900473ffffffffffffffffffffffffffffffffffffffff1673ffffffffffffffffffffffffffffffffffffffff163373ffffffffffffffffffffffffffffffffffffffff1614610cf857600080fd5b8060088190555050565b610d0b81610619565b341015610d4d576040517f08c379a0000000000000000000000000000000000000000000000000000000008152600401610d4490611bc9565b60405180910390fd5b600660009054906101000a900473ffffffffffffffffffffffffffffffffffffffff1673ffffffffffffffffffffffffffffffffffffffff1663a9059cbb33836040518363ffffffff1660e01b8152600401610daa929190611a06565b6020604051808303816000875af1158015610dc9573d6000803e3d6000fd5b505050506040513d601f19601f82011682018060405250810190610ded9190611a67565b5050565b600560009054906101000a900473ffffffffffffffffffffffffffffffffffffffff1673ffffffffffffffffffffffffffffffffffffffff163373ffffffffffffffffffffffffffffffffffffffff1614610e4b57600080fd5b600360009054906101000a900473ffffffffffffffffffffffffffffffffffffffff1673ffffffffffffffffffffffffffffffffffffffff1663e0c862896040518163ffffffff1660e01b8152600401600060405180830381600087803b158015610eb557600080fd5b505af1158015610ec9573d6000803e3d6000fd5b50505050600360009054906101000a900473ffffffffffffffffffffffffffffffffffffffff1673ffffffffffffffffffffffffffffffffffffffff1663ce10b1fb6040518163ffffffff1660e01b8152600401600060405180830381865afa158015610f3a573d6000803e3d6000fd5b505050506040513d6000823e3d601f19601f82011682018060405250810190610f639190611d13565b60049080519060200190610f78929190611414565b5060005b600480549050816bffffffffffffffffffffffff1610156110d55760006004826bffffffffffffffffffffffff1681548110610fbb57610fba6119d7565b5b906000526020600020015490506000811161100b576040517f08c379a000000000000000000000000000000000000000000000000000000000815260040161100290611df4565b60405180910390fd5b600080805490508261101d9190611e14565b9050600960008281548110611035576110346119d7565b5b9060005260206000200160009054906101000a900473ffffffffffffffffffffffffffffffffffffffff169080600181540180825580915050600190039060005260206000200160009091909190916101000a81548173ffffffffffffffffffffffffffffffffffffffff021916908373ffffffffffffffffffffffffffffffffffffffff160217905550505080806110cd90611af4565b915050610f7c565b50565b60015481565b6000600660009054906101000a900473ffffffffffffffffffffffffffffffffffffffff1673ffffffffffffffffffffffffffffffffffffffff1663dd62ed3e33306040518363ffffffff1660e01b815260040161113d929190611e45565b602060405180830381865afa15801561115a573d6000803e3d6000fd5b505050506040513d601f19601f8201168201806040525081019061117e919061194a565b9050600660009054906101000a900473ffffffffffffffffffffffffffffffffffffffff1673ffffffffffffffffffffffffffffffffffffffff166323b872dd33306008546040518463ffffffff1660e01b81526004016111e193929190611e6e565b6020604051808303816000875af1158015611200573d6000803e3d6000fd5b505050506040513d601f19601f820116820180604052508101906112249190611a67565b50600060018111156112395761123861165b565b5b600a60009054906101000a900460ff16600181111561125b5761125a61165b565b5b1461129b576040517f08c379a000000000000000000000000000000000000000000000000000000000815260040161129290611ef1565b60405180910390fd5b6000339080600181540180825580915050600190039060005260206000200160009091909190916101000a81548173ffffffffffffffffffffffffffffffffffffffff021916908373ffffffffffffffffffffffffffffffffffffffff16021790555050565b600660009054906101000a900473ffffffffffffffffffffffffffffffffffffffff1681565b6004818154811061133757600080fd5b906000526020600020016000915090505481565b6000818154811061135b57600080fd5b906000526020600020016000915054906101000a900473ffffffffffffffffffffffffffffffffffffffff1681565b828054828255906000526020600020908101928215611403579160200282015b828111156114025782518260006101000a81548173ffffffffffffffffffffffffffffffffffffffff021916908373ffffffffffffffffffffffffffffffffffffffff160217905550916020019190600101906113aa565b5b5090506114109190611461565b5090565b828054828255906000526020600020908101928215611450579160200282015b8281111561144f578251825591602001919060010190611434565b5b50905061145d9190611461565b5090565b5b8082111561147a576000816000905550600101611462565b5090565b6000819050919050565b6114918161147e565b82525050565b60006020820190506114ac6000830184611488565b92915050565b6000604051905090565b600080fd5b600080fd5b6114cf8161147e565b81146114da57600080fd5b50565b6000813590506114ec816114c6565b92915050565b600060208284031215611508576115076114bc565b5b6000611516848285016114dd565b91505092915050565b600073ffffffffffffffffffffffffffffffffffffffff82169050919050565b600061154a8261151f565b9050919050565b61155a8161153f565b82525050565b60006020820190506115756000830184611551565b92915050565b600081519050919050565b600082825260208201905092915050565b6000819050602082019050919050565b6115b08161147e565b82525050565b60006115c283836115a7565b60208301905092915050565b6000602082019050919050565b60006115e68261157b565b6115f08185611586565b93506115fb83611597565b8060005b8381101561162c57815161161388826115b6565b975061161e836115ce565b9250506001810190506115ff565b5085935050505092915050565b6000602082019050818103600083015261165381846115db565b905092915050565b7f4e487b7100000000000000000000000000000000000000000000000000000000600052602160045260246000fd5b6002811061169b5761169a61165b565b5b50565b60008190506116ac8261168a565b919050565b60006116bc8261169e565b9050919050565b6116cc816116b1565b82525050565b60006020820190506116e760008301846116c3565b92915050565b600081519050919050565b600082825260208201905092915050565b6000819050602082019050919050565b60006117248261151f565b9050919050565b61173481611719565b82525050565b6000611746838361172b565b60208301905092915050565b6000602082019050919050565b600061176a826116ed565b61177481856116f8565b935061177f83611709565b8060005b838110156117b0578151611797888261173a565b97506117a283611752565b925050600181019050611783565b5085935050505092915050565b600060208201905081810360008301526117d7818461175f565b905092915050565b6117e881611719565b82525050565b600060208201905061180360008301846117df565b92915050565b7f4e487b7100000000000000000000000000000000000000000000000000000000600052601160045260246000fd5b60006118438261147e565b915061184e8361147e565b9250817fffffffffffffffffffffffffffffffffffffffffffffffffffffffffffffffff048311821515161561188757611886611809565b5b828202905092915050565b600082825260208201905092915050565b7f4249584349504c6f74746572793a205468652072616e646f6d206e756d62657260008201527f20686173206e6f7420796574206265656e2067656e6572617465640000000000602082015250565b60006118ff603b83611892565b915061190a826118a3565b604082019050919050565b6000602082019050818103600083015261192e816118f2565b9050919050565b600081519050611944816114c6565b92915050565b6000602082840312156119605761195f6114bc565b5b600061196e84828501611935565b91505092915050565b7f4e487b7100000000000000000000000000000000000000000000000000000000600052601260045260246000fd5b60006119b18261147e565b91506119bc8361147e565b9250826119cc576119cb611977565b5b828204905092915050565b7f4e487b7100000000000000000000000000000000000000000000000000000000600052603260045260246000fd5b6000604082019050611a1b6000830185611551565b611a286020830184611488565b9392505050565b60008115159050919050565b611a4481611a2f565b8114611a4f57600080fd5b50565b600081519050611a6181611a3b565b92915050565b600060208284031215611a7d57611a7c6114bc565b5b6000611a8b84828501611a52565b91505092915050565b6000611a9f8261147e565b91507fffffffffffffffffffffffffffffffffffffffffffffffffffffffffffffffff8203611ad157611ad0611809565b5b600182019050919050565b60006bffffffffffffffffffffffff82169050919050565b6000611aff82611adc565b91506bffffffffffffffffffffffff8203611b1d57611b1c611809565b5b600182019050919050565b7f4e487b7100000000000000000000000000000000000000000000000000000000600052604160045260246000fd5b7f4249584349504c6f74746572793a2045746865722073656e7420776173206e6f60008201527f7420656e6f75676820666f722042494958000000000000000000000000000000602082015250565b6000611bb3603183611892565b9150611bbe82611b57565b604082019050919050565b60006020820190508181036000830152611be281611ba6565b9050919050565b600080fd5b6000601f19601f8301169050919050565b611c0882611bee565b810181811067ffffffffffffffff82111715611c2757611c26611b28565b5b80604052505050565b6000611c3a6114b2565b9050611c468282611bff565b919050565b600067ffffffffffffffff821115611c6657611c65611b28565b5b602082029050602081019050919050565b600080fd5b6000611c8f611c8a84611c4b565b611c30565b90508083825260208201905060208402830185811115611cb257611cb1611c77565b5b835b81811015611cdb5780611cc78882611935565b845260208401935050602081019050611cb4565b5050509392505050565b600082601f830112611cfa57611cf9611be9565b5b8151611d0a848260208601611c7c565b91505092915050565b600060208284031215611d2957611d286114bc565b5b600082015167ffffffffffffffff811115611d4757611d466114c1565b5b611d5384828501611ce5565b91505092915050565b7f4249584349504c6f74746572793a204d7573742068617665206120736f75726360008201527f65206f662072616e646f6d6e657373206265666f72652063686f6f73696e672060208201527f77696e6e65720000000000000000000000000000000000000000000000000000604082015250565b6000611dde604683611892565b9150611de982611d5c565b606082019050919050565b60006020820190508181036000830152611e0d81611dd1565b9050919050565b6000611e1f8261147e565b9150611e2a8361147e565b925082611e3a57611e39611977565b5b828206905092915050565b6000604082019050611e5a6000830185611551565b611e676020830184611551565b9392505050565b6000606082019050611e836000830186611551565b611e906020830185611551565b611e9d6040830184611488565b949350505050565b7f546865206c6f747465727920697320636c6f7365640000000000000000000000600082015250565b6000611edb601583611892565b9150611ee682611ea5565b602082019050919050565b60006020820190508181036000830152611f0a81611ece565b905091905056fea2646970667358221220c56c9b3f73975319cf9208c3d3ab9eb053bbac7a6bfa6a5c05ee1f3506ff0a0e64736f6c634300080f0033",
  "immutableReferences": {},
  "source": "// SPDX-License-Identifier: UNLICENSED\n// An example of a consumer contract that relies on a subscription for funding.\npragma solidity ^0.8.7;\n\nimport \"../interfaces/IRandomNumberGenerator.sol\";\nimport \"@openzeppelin/contracts/token/ERC20/IERC20.sol\";\n\ncontract BIXCIPLottery {\n    address payable[] public players;\n    uint256 public lotteryId;\n    mapping(uint256 => address) public lotteryHistory;\n    IRandomNumberGenerator randomNumberGenerator;\n    uint256[] public s_randomWords;\n    address s_owner;\n    address public biixToken;\n    uint256 public biixValue = 0.001 ether;\n    uint256 public ticketFee = 100 ether;\n    address[] public winners;\n    enum LotteryState {\n        OPEN,\n        CLOSED\n    }\n\n    LotteryState lotteryState;\n\n    constructor(address _randomNumberGeneratorAddress, address _biixToken) {\n        s_owner = msg.sender;\n        lotteryId = 1;\n        randomNumberGenerator = IRandomNumberGenerator(\n            _randomNumberGeneratorAddress\n        );\n        biixToken = _biixToken;\n        startLottery();\n    }\n\n    function getWinnerByLottery(uint256 lottery) public view returns (address) {\n        return lotteryHistory[lottery];\n    }\n\n    function getBalance() public view returns (uint256) {\n        return address(this).balance;\n    }\n\n    function getPlayers() public view returns (address payable[] memory) {\n        return players;\n    }\n\n    function getRandomNumbers() public view returns (uint256[] memory) {\n        return s_randomWords;\n    }\n\n    function enter() public {\n        uint256 allowance = IERC20(biixToken).allowance(\n            msg.sender,\n            address(this)\n        );\n\n        IERC20(biixToken).transferFrom(msg.sender, address(this), ticketFee);\n\n        require(lotteryState == LotteryState.OPEN, \"The lottery is closed\");\n\n        players.push(payable(msg.sender));\n    }\n\n    function sendBIIX(uint256 amount) public payable {\n        require(\n            msg.value >= convertBIIXToEth(amount),\n            \"BIXCIPLottery: Ether sent was not enough for BIIX\"\n        );\n        IERC20(biixToken).transfer(msg.sender, amount);\n    }\n\n    function convertBIIXToEth(uint256 amount) public view returns (uint256) {\n        return amount * biixValue;\n    }\n\n    function getTicketFee() public view returns (uint256) {\n        return ticketFee;\n    }\n\n    function getBIIXValue() public view returns (uint256) {\n        return biixValue;\n    }\n\n    function setBIIXValue(uint256 _biixValue) public onlyOwner {\n        biixValue = _biixValue;\n    }\n\n    function setTicketFee(uint256 _ticketFee) public onlyOwner {\n        ticketFee = _ticketFee;\n    }\n\n    function pickWinners() public onlyOwner {\n        randomNumberGenerator.requestRandomWords();\n        s_randomWords = randomNumberGenerator.getRandomWords();\n        for (uint96 i = 0; i < s_randomWords.length; i++) {\n            uint256 randomResult = s_randomWords[i];\n            require(\n                randomResult > 0,\n                \"BIXCIPLottery: Must have a source of randomness before choosing winner\"\n            );\n            uint256 index = randomResult % players.length;\n            winners.push(players[index]);\n        }\n    }\n\n    function payWinners() public onlyOwner {\n        require(\n            s_randomWords.length > 0,\n            \"BIXCIPLottery: The random number has not yet been generated\"\n        );\n\n        for (uint96 i = 0; i < winners.length; i++) {\n            uint256 amount = IERC20(biixToken).balanceOf((address(this))) /\n                winners.length;\n            IERC20(biixToken).transfer(winners[i], amount);\n            lotteryHistory[lotteryId] = winners[i];\n            lotteryId++;\n        }\n\n        // reset the state of the contract\n        players = new address payable[](0);\n        s_randomWords = new uint256[](0);\n        closeLottery();\n    }\n\n    function startLottery() public onlyOwner {\n        lotteryState = LotteryState.OPEN;\n    }\n\n    function closeLottery() public onlyOwner {\n        lotteryState = LotteryState.CLOSED;\n    }\n\n    function getLotteryState() public view returns (LotteryState) {\n        return lotteryState;\n    }\n\n    modifier onlyOwner() {\n        require(msg.sender == s_owner);\n        _;\n    }\n}\n",
  "sourcePath": "/home/raphael/blockchain/bixcip-lottery/contracts/BIXCIPLottery.sol",
  "compiler": {
    "name": "solc",
    "version": "0.8.15+commit.e14f2714.Emscripten.clang"
  },
  "schemaVersion": "3.4.7",
  "updatedAt": "2022-06-29T10:14:01.802Z",
  "devdoc": {
    "kind": "dev",
    "methods": {},
    "version": 1
  },
  "userdoc": {
    "kind": "user",
    "methods": {},
    "version": 1
  }
}